:100000000C944C050C94B7050C949A080C94B70505
:100010000C94B7050C94B7050C94B7050C94B70570
:100020000C94B7050C94B7050C9430160C94B705D6
:100030000C94E3230C94B7050C94B7050C94B70506
:100040000C94B7050C94B7050C94B7050C94B70540
:100050000C94B7050C9438240C94B7050C94B70590
:100060000C94B7050C94B7050C94B7050C94B70520
:100070000C94B7050C94B7050C94B7050C94B70510
:100080000C94B7050C94B7050C94B7050C94B70500
:100090000C94B7050C94B7056C0A6E0A7A0A7A0AB2
:1000A0007A0A7A0A7A0A7A0A700A720A740A7A0A48
:1000B0007A0A6E0A7C0A7A0A7A0A360A6C0A7A0A7C
:1000C0007A0A720A7A0A7A0A7A0A7A0A7A0A7A0A18
:1000D000740A6C0A580A7A0A5C0A7A0A7A0A7A0A54
:1000E000380A700A7A0A7A0A660A7A0A7A0A7A0A50
:1000F0003A0A780A7A0A5A0A7A0A6E0A7A0A7A0A4E
:100100006A0A5E0A7A0A600A720A7A0A7A0A7A0A1D
:10011000680A620A7A0A7A0A7A0A7A0A7A0A7A0AE9
:100120007A0A640A7A0A3C0A7A0A7A0A700A7A0A0D
:100130007A0A780A7A0A7A0A7A0A7A0A7A0A7A0AA1
:100140007A0A7A0A7A0A3E0A7A0A7A0A7A0A660ADF
:100150007A0A7A0A7A0A7A0A7A0A7A0A7A0A7A0A7F
:100160007A0A7A0A400A7A0A420A440A7A0A7A0A17
:100170007A0A460A480A4A0A7A0A4C0A4E0A7A0A4F
:100180007A0A7A0A760A500A7A0A540A520A560AEF
:100190007A0A7A0A7A0A7A0A780AA00AAE0ABA0AA7
:1001A000BA0A920ABA0ABA0ABA0ABA0ABA0ABA0A57
:1001B000BA0ABA0ABA0ABA0ABA0ABA0ABA0A940A45
:1001C000BA0A960ABA0ABA0ABA0ABA0AB20ABA0A3B
:1001D000C90AB00ABA0ABA0ABA0ABA0ABA0ABA0AFA
:1001E000BA0ABA0ABA0ABA0ABA0ABA0ABA0A8A0A1F
:1001F000A60A980AAA0ABA0A9A0ABA0A9E0ABA0A61
:10020000A80A9C0AAC0AA20AA40ABA0ABA0ABA0A3A
:10021000BA0ABA0ABA0ABA0A8C0A8E0A900AB40A48
:10022000B60ABA0ABA0ABA0AB80AAC0BCA0BD60B93
:10023000FA0B0A0C160C320C490C6C0C890C180DBC
:10024000490DC30DF50DDF0D060E180E200E260EFE
:100250002A0E300E8C0E8E0E900E920ED20E9A0E2C
:100260009A0E9A0E940E960E980E7B14A2149A155E
:10027000A2149A15EE1411159A1568157715FA1926
:10028000FA19241A241A7F1AAA1CAA1CAA1CB31A27
:10029000AA1C9E1B9E1B641CAA1C791C971C007B1D
:1002A00046010203763A687F6577482B353B6978CB
:1002B000796439141E3C6A7A1D16041A1F3D6B06B8
:1002C0001B070821203E6C2C19091715223F6D11C0
:1002D000050B0A1C23406E7E100D182425416F3635
:1002E0000E0C122726427037380F33132D437175C9
:1002F00034322F2E44727C7D283031744573515036
:100300004A524D492A5466594F5C5F4C4B4E6263CA
:100310005A5D5E60295367585B565761475548429E
:10032000403E3C3A3B456843413F3D2B357E697A30
:10033000790078141E7C6A7B1D16041A1F7F6B06D9
:100340001B070821204D6C2C19091715224A6D1125
:10035000050B0A1C234C6E49100D182425516F36CD
:100360000E0C1227264F7037380F33132D5271752C
:1003700034502F2E4E72397D283065314B735464C2
:10038000586776012A773259745C5F6602036263AC
:100390005A5D5E60295344575B5655614746802934
:1003A0001E1F20212223242526272D2E2A2B141A16
:1003B0000815171C180C12132F302878041607097B
:1003C0000A0B0D0E0F33343579311D1B061905113B
:1003D000103637387D557A2C393A3B3C3D3E3F400C
:1003E00041424353475F6061565C5D5E57595A5BBB
:1003F00062634648324445677B7F65030102525081
:10040000514F68696A6B6C6D6E6F707172580049FC
:100410004C754A4D734B4E767C777E7466547225CC
:100420003032582000623A2530345820006525309B
:10043000325820002146554C4C21200021464621AF
:100440002000772530325820000A4552523A253094
:1004500032580A00214353335F4630210A002143BA
:1004600053335F5245414459210A00214353325FBF
:1004700045305F4630210A00214353325F46302128
:100480000A00214353325F4530210A002143533291
:100490005F494E4954210A00214353315F45305F83
:1004A00025303258210A000A5B4F56525D20004C1D
:1004B0002575200053257520000A49443A2530341B
:1004C000582825642920004D6F7573653A206E6F9A
:1004D0007420737570706F727465640A00522575AC
:1004E00020005725752000572575200057257520B9
:1004F00000582575200041257520004925752000EC
:100500005B4348475D20000A5052543A2530325828
:10051000204953523A2530345820005B5253545DE1
:1005200020000A4552523A25303258204953523A57
:100530002530345820000A4B6579626F617264205F
:1005400073746172742E0A000A55534220636F6EF1
:10055000666967757265642E0A000A0A544D4B3A43
:1005600061616561623163622F4C5546410A0A0040
:100570003403490042004D00200050004300200099
:100580006B006500790062006F006100720064001A
:10059000200063006F006E0076006500720074003A
:1005A0006500720000000E0374002E006D002E0026
:1005B0006B002E000000040309040902740004010A
:1005C00000A032090400000103010100092111010A
:1005D00000012240000705810308000A0904010008
:1005E0000103000000092111010001223600070566
:1005F000820308000A090402000203000000092126
:1006000011010001222200070583032000010705D4
:100610000303200001090403000103000000092175
:100620001101000122390007058403200001120195
:10063000100100000008EDFEEE1B010001020001A8
:1006400005010906A101050719E029E715002501A3
:10065000950875018102050819012905950575019F
:1006600091029501750391010507190029F71500FD
:10067000250195F875018102C00631FF0974A101B9
:100680000975150026FF0095207508810209761569
:100690000026FF00952075089102C005010980A180
:1006A0000185021601002637001A81002AB700755D
:1006B0001095018100C0050C0901A10185031601F7
:1006C00000269C021A01002A9C02751095018100E7
:1006D000C005010906A101050719E029E715002554
:1006E00001950875018102950175088101050819B8
:1006F0000129059505750191029501750391010583
:1007000007190029FF150026FF00950675088100CE
:10071000C0636F6E73756D65723A20253034580A68
:100720000073797374656D3A20253034580A000AD5
:10073000002530325820006B6579626F6172643A2F
:1007400020004C45443A20253032580A00253032EA
:10075000583A202530386225730A00722F63203002
:10076000313233343536370A0064656C5F6B657936
:100770005F6269743A2063616E27742064656C3A25
:1007800020253032580A006164645F6B65795F62CE
:1007900069743A2063616E2774206164643A20258D
:1007A0003032580A003F00433E20004C25640A00C6
:1007B0000A092D20436F6E736F6C65202D0A455317
:1007C000432F713A09717569740A000A092D204D89
:1007D00061676963202D0A643A0964656275670A76
:1007E000783A096465627567206D61747269780A88
:1007F0006B3A096465627567206B6579626F617237
:10080000640A6D3A096465627567206D6F7573657A
:100810000A763A0976657273696F6E0A733A0973DC
:1008200074617475730A633A09636F6E736F6C65F4
:10083000206D6F64650A302D343A096C61796572F8
:10084000302D34284631302D4634290A50617573D5
:100850003A09626F6F746C6F616465720A6E3A096F
:100860004E4B524F0A003F004E4B524F3A206F669C
:10087000660A004E4B524F3A206F6E0A0074696D43
:1008800065725F72656164333228293A20253034FD
:100890006C580A006B6579626F6172645F6E6B728F
:1008A0006F3A2025580A006B6579626F6172645F48
:1008B00069646C653A2025580A006B6579626F613E
:1008C00072645F70726F746F636F6C3A2025580AA0
:1008D00000686F73745F6B6579626F6172645F6CDF
:1008E00065647328293A2025580A000A092D2053E7
:1008F0007461747573202D0A004743433A20352EE6
:10090000342E30204156522D4C4942433A20322E4B
:10091000302E30204156525F415243483A20617692
:100920007235310A004F5054494F4E533A204C55BE
:1009300046412045585452414B455920434F4E5350
:100940004F4C4520434F4D4D414E44204E4B524F4E
:10095000204B45594D41505F53454354494F4E201C
:10096000424F4F544C4F414445525F53495A450AF8
:10097000004255494C443A206161656162316362CD
:10098000202831353A33323A3438204D61792032DB
:10099000322032303230290A005649443A20307829
:1009A0004645454428742E6D2E6B2E29205049440F
:1009B0003A203078316265652849424D2050432005
:1009C0006B6579626F61726420636F6E76657274B5
:1009D000657229205645523A203078303030310A3D
:1009E00000444553433A20636F6E76657274204924
:1009F000424D205043206B6579626F6172642074B0
:100A00006F205553420A000A092D205665727369FA
:100A10006F6E202D0A000A6D6F7573653A206F6640
:100A2000660A000A6D6F7573653A206F6E0A000AD8
:100A30006B6579626F6172643A206F66660A000ABC
:100A40006B6579626F6172643A206F6E0A000A6D9D
:100A500061747269783A206F66660A000A6D617483
:100A60007269783A206F6E0A000A64656275673AA7
:100A7000206F6E0A000A64656275673A206F6666C9
:100A80000A000A0A626F6F746C6F616465722E2EC1
:100A90002E2000433E20000011241FBECFEFD0E2E5
:100AA000DEBFCDBF04B603FE49C08091880390919C
:100AB0008903A0918A03B0918B038730904BA740A4
:100AC000B04B09F03BC0109288031092890310923A
:100AD0008A0310928B0314BE0FB6F894A8958091E8
:100AE0006000886180936000109260000FBE1092D9
:100AF000010810920008E3E0F0E089E080935700DD
:100B0000E491E695E370E150E33040F4F0E0EE0F5D
:100B1000FF1FE35DFE4F2081318102C020E030E203
:100B200080E090E0A2E0B0E0821B930BA109B10944
:100B3000B595A79597958795FC01099511E0A0E0DB
:100B4000B1E0E0E8FCE400E00BBF02C007900D92CA
:100B5000A433B107D9F723E0A4E3B1E001C01D92AB
:100B6000A838B207E1F70E9496110C943E260C9427
:100B70000000FF93EF93E0913401F091350130973D
:100B800009F00995EF91FF910895FC01859180305E
:100B900011F0EFDFFBCF0895FF27E0E230E247FFDF
:100BA0000CC0419597FF09C0EDE260957095809566
:100BB0009095611D711D811D911D27FF02C021951A
:100BC00030E350E2AA27660F771F881F991FAA1FDC
:100BD000A41710F0A41B63955A95A9F7AA3008F042
:100BE000A95FA05DAF93F39561157105810591052E
:100BF00041F7ED3211F4EF93F395F21718F43F93A8
:100C0000F395FBCF8F91B5DFFA95E1F70895E99160
:100C1000F9918591803021F0853219F0AADFF9CF62
:100C2000089520E0E89455915532C1F3503311F402
:100C3000689455915A3348F4505390F3220F022E82
:100C4000220F220F200D250FF4CF0EF4219589914C
:100C50009991533619F3533729F1533559F1BC01A2
:100C600088279927E8945C3621F4899199916894B2
:100C70005591543639F446EF7EF077FF0DC08FEF73
:100C80009FEF0AC055374AE039F0583540E121F06E
:100C9000523642E009F00895FF93EF937DDFEF9124
:100CA000FF91B7CFFF93EF93FC0181918030B9F3AF
:100CB00060DFFBCFFF93EF9368DFF1CFDF93CF933C
:100CC000CDB7DEB72596A3DFCF91DF910895282F0A
:100CD00080914101823071F08330B1F0813001F5B3
:100CE000E62FF0E038E0739FE00DF11D1124E2568D
:100CF000FC4F13C0E62FF0E088E0789FE00DF11D77
:100D00001124E25EFC4F09C0E62FF0E038E0739F4B
:100D1000E00DF11D1124E256FD4FE491E03819F485
:100D200080E090E008959E2F9077892F90E034E046
:100D3000959587953A95E1F738E0239F800D911DB1
:100D4000112444E0880F991F4A95E1F7EF709C0148
:100D50002E0F311DF901EE0FFF1FE050F84985916C
:100D6000949108955998519A08955198599A0895CF
:100D70005898509A08955098589A08955198599AA9
:100D800085E08A95F1F7000089B186958170089514
:100D90005098589A85E08A95F1F7000089B18170E2
:100DA0000895CF93DF93EC010E94BE06882341F0A3
:100DB000209731F085E08A95F1F700002197F4CF74
:100DC000CE01DF91CF910895CF93DF93C2E3D0E0BE
:100DD0000E94BE06811108C0209731F085E08A95F7
:100DE000F1F700002197F4CFCE01DF91CF91089564
:100DF0002E9826982F9827980E94B2060E94BB062C
:100E0000E9E6F0E0808188608083E9980895E19ABE
:100E1000E99A0E94B5060C94BB06E9980E94B206B6
:100E20000C94BB06CF93DF932FB7F894C0910201C7
:100E3000D0910301CE01882781159F4F19F080E0E2
:100E40009FEF02C08FEF90E08C2B9D2B90930301BE
:100E5000809302012FBFCE0199278F3F910581F525
:100E6000CD2FDD27C03FD10551F0CF3FD10509F48B
:100E700051C080917503C034D10599F407C08091A9
:100E8000750380FF33C08CE394E004C080FF2EC064
:100E900084E394E09F938F930E945E060F900F90DF
:100EA00025C080FF37C0DF93CF938DE294E09F93FE
:100EB0008F930E945E060F900F900F900F902AC0A4
:100EC000CE018F6F019699F08091750380FF0CC061
:100ED000DF93CF9385E294E09F938F930E945E0609
:100EE0000F900F900F900F90CD2F01C0CFEF8091FA
:100EF000750380FF0CC01F92CF938EE194E09F9307
:100F00008F930E945E060F900F900F900F908C2F82
:100F100090E002C08FEF9FEFDF91CF910895CF93C4
:100F2000CAE1C15069F00E9412078F3F2FEF92076C
:100F300049F48FE99FE00197F1F700C00000F1CF7D
:100F40008FEF9FEFCF91089510923A0110923901DF
:100F5000109238011092370180E090E890930101DF
:100F6000809300018FEF9FEF909303018093020124
:100F70000895EF92FF920F931F93CF93DF93082F63
:100F8000109237018091750380FF0CC01F920F9360
:100F900082E494E09F938F930E945E060F900F90DF
:100FA0000F900F90E9980E94B2060E94BB068FE84E
:100FB00091E00197F1F700C000000E94B8068FE8A9
:100FC00091E00197F1F700C000000E94B50688EE9D
:100FD0009DEF0E94D106892B11F481E07FC0C0E013
:100FE000D0E0FF24F39410E0EE24E39490E59A958A
:100FF000F1F7C8010C2E02C0959587950A94E2F787
:1010000080FF04C0FE240E94BB0602C00E94B806F6
:101010000E94E406892B11F482E060C082E390E034
:101020000E94D106892B11F483E058C02196C83064
:10103000D105E1F680E58A95F1F7FF2019F00E94CD
:10104000BB0602C00E94B8060E94E406892B11F478
:1010500084E044C082E390E00E94D106892B11F421
:1010600085E03CC090E59A95F1F70E94BB060E948E
:10107000E406892B11F486E031C088EE9DEF0E94D2
:10108000D106892B19F0C2E3D0E009C087E026C061
:10109000209759F025E02A95F1F7000021970E944A
:1010A000C8068111F5CFCD2B11F488E017C00E943E
:1010B000E406892B19F0C2E3D0E009C089E00EC034
:1010C000209759F085E08A95F1F7000021970E945A
:1010D000C8068823A9F3CD2BB9F48AE080933701A1
:1010E000809137018061809337010E94B5060E948C
:1010F000BB06E19AE99A8FEF9FEFDF91CF911F91A5
:101100000F91FF90EF9008958FEF9FEF9093030161
:10111000809302010E94A4070E94B5060E94BB06AC
:10112000E19AE99ADF91CF911F910F91FF90EF9093
:101130000C948F071F920F920FB60F9211242F93CA
:101140003F934F935F938F939F9329B19091760331
:1011500040910001509101014115504819F49093BC
:10116000360111C080913601981769F08F5F98178A
:1011700051F0809100019091010190933A01809388
:10118000390180E2DDC080910001909101019695C6
:101190008795909301018093000120FF09C0809101
:1011A00000019091010190689093010180930001EA
:1011B000809100019091010199278038910509F4EF
:1011C000F9C0A8F48032910509F4F4C038F400970E
:1011D00009F4F0C0409709F489C0A9C08034910592
:1011E00009F4E8C08035910509F480C0A0C0803CB6
:1011F000910539F150F48039910509F477C0803AAE
:10120000910509F094C084E64DC0803D910509F434
:101210006DC0803E910509F08AC0809100019091D7
:10122000010190933A0180933901809100019091DE
:101230000101892F9927909301018093000183E296
:1012400052C084E649990FC0882369F095E09A95C9
:10125000F1F700008150F6CF882349F095E09A9588
:10126000F1F7000081504999F7CF8111A3C0809117
:1012700000019091010190933A018093390180918E
:10128000000190910101892F99279093010180938A
:10129000000182E228C0882379F095E09A95F1F761
:1012A00000008150499BF7CF07C0882349F095E0A3
:1012B0009A95F1F7000081504999F7CF81117AC0D2
:1012C000809100019091010190933A01809339013E
:1012D0008091000190910101892F9927909301013C
:1012E0008093000181E28093380133C08091000136
:1012F0009091010190933A0180933901809100010E
:101300009091010197FF02C080E101C081E18093CB
:101310003801809100019091010146E096958795F2
:101320004A95E1F7909301018093000112C08091EA
:1013300000019091010190933A018093390180E876
:10134000809337018091370190E0982F88278F6F25
:1013500027C0809100019091010199278F3F91054D
:1013600011F480EFEDCF809103018F3F31F0809138
:1013700002018F3F11F080E4E3CF80910201909150
:101380000301982F882790930301809302012091F5
:101390000001309101018091020190910301822BA3
:1013A000909303018093020180E090E89093010103
:1013B000809300019F918F915F914F913F912F9169
:1013C0000F900FBE0F901F901895CF93C82F8DEEE2
:1013D0000E94B9078A3F910521F48C2FCF910C947C
:1013E000B907CF910895E82FE695E695E695EF7059
:1013F000F0E0EB5BFE4F4081282F277081E090E00A
:1014000002C0880F991F2A95E2F7242F30E0282385
:101410003923232B11F4842B80830895E82FE6953C
:10142000E695E695EF70F0E0EB5BFE4F2081382FFC
:10143000377081E090E002C0880F991F3A95E2F77B
:10144000422F50E048235923452B19F080958223E1
:1014500080830895482F50E0FA013397E138F10571
:1014600008F048C0E45BFF4F0C94352687E10895EF
:101470008FE108958CE5089580E6089582E6089549
:1014800087E2089583E508958FE2089589E308953A
:1014900087E308958FE3089587E408958FE408951E
:1014A00086E508958EE508958FE7089580E0089514
:1014B00085E608958EE608958FE6089580E3089501
:1014C00088E3089580E4089588E4089580E5089508
:1014D00087E508958FE5089588E1089588E00895E7
:1014E00080E2089580E1089589E108958DE60895E8
:1014F00088E208958F7708958FE00895CF93482F5D
:1015000050E0FA017C97E834F105A0F5E353FF4F72
:101510000C94352685E53EC08AE53CC08BE53AC093
:101520008CE538C08DE536C08EE534C08FE532C01D
:1015300080E630C081E62EC082E62CC083E62AC059
:101540008FE628C081E726C082E724C084E722C056
:1015500085E720C087E71EC088E71CC08AE71AC05D
:101560008CE718C08FE716C080E714C089E712C067
:101570008BE710C0C82F1F928F9388E994E09F9348
:101580008F930E945E060F900F900F900F908C2FFC
:1015900001C084E5CF9108950F931F93CF93DF93FC
:1015A0000E9411248C010E941207EC01019631F473
:1015B000C8010E942924843F9140A8F3CE01DF9105
:1015C000CF911F910F9108950E94F8060C94070780
:1015D00080917503816080937503E5E4F1E01192D9
:1015E00081E0E535F807D9F70895E82FF0E0EB5BE7
:1015F000FE4F80810895E5E4F1E0119281E0E53548
:10160000F807D9F70895982F809141018230E8F0CA
:1016100092FB882780F990FD826091FD84600E9492
:10162000E50980913701882381F0809137011F926D
:101630008F9389E494E09F938F930E945E061092AB
:1016400037010F900F900F900F900895CF93DF9375
:1016500080913701882371F18091390190913A018D
:10166000209137019F938F931F922F9382E295E0F1
:101670009F938F930E945E068091370180750F9033
:101680000F900F900F900F900F9071F48091400188
:101690008B3051F48BE195E09F938F930E945E060F
:1016A000109240010F900F901092370110923A0162
:1016B0001092390180913801882309F440C090913B
:1016C0003801809144019817D1F1809139019091AE
:1016D0003A01209138019F938F931F922F9387E0B7
:1016E00095E09F938F930E945E06809144010F9036
:1016F0000F900F900F900F900F9085FF04C0909166
:10170000380194FD06C084FF12C08091380185FF26
:101710000EC0809140018B3051F480E095E09F93A2
:101720008F930E945E06109240010F900F9080915F
:1017300038018093440110923A0110923901E091EE
:1017400040018E2F90E08C30910508F02FC3FC01F2
:10175000EB5EFE4F0C9435260E940D070E9411246B
:101760009F938F938BEF94E09F938F930E945E06DD
:101770001092410110924301109242010E94FB0A13
:101780000E94AA190E94112490933F0180933E0168
:1017900081E065C080913E0190913F010E94292423
:1017A000893E934008F402C382E031C00E94A4073E
:1017B0000E9407078FE99FE00197F1F700C0000042
:1017C0008FEF0E94B9078A3F910511F486E001C0AE
:1017D00083E0809340010E9411249F938F9386EFB2
:1017E00094E09F938F930E945E060F900F900F904E
:1017F0000F90DCC20E940D072E98269A2F98279AE8
:101800000E94112490933F0180933E0184E08093D5
:101810004001CCC280913E0190913F010E94292459
:10182000853F914008F4C2C285E0F1CF2E982698FA
:101830002F9827980E94A4070E9407070E9411244E
:101840009F938F9381EF94E09F938F930E945E0606
:101850000E94112490933F0180933E0186E0809383
:101860004001C3CF0E941207019609F49FC20E9453
:1018700011249F938F938CEE94E09F938F930E94FB
:101880005E060E94112490933F0180933E0187E001
:10189000E6CF80913E0190913F010E942924853F2F
:1018A000914018F089E0809340010E941207019650
:1018B00009F47CC20E9411249F938F9387EE94E0D9
:1018C0009F938F930E945E060E94112490933F0184
:1018D00080933E0188E0C3CF80913E0190913F010B
:1018E0000E942924853F914018F089E080934001AF
:1018F0000E941207019609F459C20E9411249F9375
:101900008F9382EE94E09F938F930E945E0689E00E
:10191000A6CF80913801813119F480E090E01DC09C
:1019200082EF0E94B9078F3F2FEF920789F08A3F1D
:10193000910589F40E94CC0A8F3F3FEF930769F32A
:10194000D82FCC270E94CC0A9E01282BC90105C0A4
:101950008FEF9FEF02C08EEF9FEF90934301809334
:1019600042010E9411249F938F938DED94E09F93E9
:101970008F930E945E0680914201909143010F90E7
:101980000F900F900F90009711F482E02BC08F3FC3
:101990003FEF930711F481E025C08E3F2FEF9207B0
:1019A000A1F38F3F910559F487EC94E09F938F93B7
:1019B0000E945E06109241010F900F901FC09C0183
:1019C00025583B4A2230310580F480EF0E94B90748
:1019D0008A3F9105D1F683E00E94B9078A3F9105BD
:1019E000A1F683E08093410109C0803B3FEB930760
:1019F000C1F3882781159F4BA1F3C7CF8091410187
:101A00001F928F93809143018F93809142018F9316
:101A100089EB94E09F938F930E945E068AE0809307
:101A200040010F900F900F900F900F900F90BEC13C
:101A30000E9411249F938F9384EB94E09F938F9344
:101A40000E945E060F900F900F900F9080914101C1
:101A5000823031F0833061F488EF0E94B90704C00E
:101A600080913801813121F00E9422170E94030BDE
:101A70008BE0809340010E9411249F938F938FEA03
:101A800094E09F938F930E945E060F900F900F90AB
:101A90000F900E9412079C012F3F9FEF390709F416
:101AA00085C12115310519F02F3F310569F40E94D8
:101AB000FB0A0E94AA1987EA94E09F938F930E94E1
:101AC0005E060F900F9072C190914101923009F41F
:101AD0004DC0933009F4CCC0913009F067C19091AA
:101AE0003D01923099F028F4992341F09130C1F0F2
:101AF0003AC0933081F1943091F135C0803E21F0AD
:101B0000813E51F482E005C081E003C08D31F9F4DB
:101B100083E080933D014AC187FFE4C08F770EC107
:101B2000863309F118F48A3229F41DC08A3AD9F0B3
:101B3000863BC9F087FD05C00E947E0A0E94F3091A
:101B400012C08F770E947E0A0E940E0A0CC08D3947
:101B500051F484E0DECF853431F485E5C3C08534AB
:101B600011F485E5EBC010923D0120C1E0913C01EC
:101B70004E2F50E04930510508F077C0FA01EF5D73
:101B8000FE4F0C943526803E69F030F4833871F0B6
:101B9000843871F48FE757C0813E31F0803F41F4C3
:101BA00081E05BC082E059C084E057C082E04BC056
:101BB00087FF98C00E94FB0A8CE894E098C08935A2
:101BC00009F453C0803F19F0823119F44EC083E00C
:101BD00044C010923C0187FD03C00E942A0A82C0C3
:101BE0000E94FB0A82E894E082C0833821F08438A6
:101BF00021F48FE738C082E036C010923C0187FFA5
:101C00009DC00E94FB0A88E794E071C010923C01DD
:101C1000823109F4CBC0893509F4C8C087FD03C0FF
:101C20000E942A0A8BC00E94FB0A8BE694E05FC0E8
:101C3000843121F0803FC9F486E00FC085E00DC0FB
:101C4000873799F480E00E94F3090FC0843169F46A
:101C500087E003C0803F49F488E080933C01A6C040
:101C6000873719F480E00E940E0A10923C019EC052
:101C700090913B01913009F443C038F0923009F45F
:101C800063C0933009F47FC091C0863809F168F4CD
:101C90008338D1F020F4803819F582E06CC08438A4
:101CA000A9F08538E9F48BE01DC08C38A9F030F438
:101CB000873881F08B38A1F481E014C08D3871F041
:101CC000803F71F481E057C082E00CC08FE70AC00A
:101CD00086E008C080E006C089E004C08AE002C057
:101CE00087FD03C00E94F30961C08EE594E09F93D5
:101CF0008F930E945E060F900F901092400156C085
:101D0000482F50E0FA01E358F109EB30F10590F467
:101D1000E65DFE4F0C94352682E045C08FE743C058
:101D20008BE041C086E03FC081E03DC089E03BC020
:101D30008AE039C010923B0187FD03C00E940E0A61
:101D400035C084E594E0D3CF853279F030F4863124
:101D500071F08E3199F480E00BC0863221F0803F23
:101D600069F483E008C08DE503C083E501C081E527
:101D70000E94F30905C080933B0118C00E94FB0A32
:101D800010923B0113C08E3169F020F48631B1F717
:101D900081E509C0853221F0863281F78DE503C0E7
:101DA00083E501C080E00E940E0AEACF81E0DF9166
:101DB000CF9108958091790208950895CF93DF938C
:101DC00000D01F92CDB7DEB720917F03243021F5DC
:101DD00023E029839B838A8382E08093E9008FEF4D
:101DE0009091E800815095FD06C095ED9A95F1F728
:101DF00000008111F5CF8091E80085FF0DC040E023
:101E000050E063E070E0CE0101960E944A13809199
:101E1000E8008E778093E8000F900F900F90DF918D
:101E2000CF910895CF93DF9300D01F92CDB7DEB747
:101E300020917F03243029F522E0298380589109DD
:101E40009B838A832093E9008FEF9091E800815073
:101E500095FD06C095ED9A95F1F700008111F5CF3B
:101E60008091E80085FF0DC040E050E063E070E045
:101E7000CE0101960E944A138091E8008E778093EC
:101E8000E8000F900F900F90DF91CF910895CF93BE
:101E9000DF93EC0190917F03943009F048C080916A
:101EA00014018823D9F0809115018823B9F090930B
:101EB000E90081E8815049F09091E80095FD05C066
:101EC0009AE29A95F1F700C0F5CF8091E80085FF7E
:101ED0002EC040E050E060E270E019C081E08093E5
:101EE000E90081E8815059F09091E80095FD07C024
:101EF000EFE3F1E03197F1F700C00000F3CF8091FC
:101F0000E80085FF14C040E050E068E070E0CE01DA
:101F10000E944A138091E8008E778093E80080E267
:101F2000FE01A9E5B2E001900D928A95E1F7DF91FB
:101F3000CF910895CF93C0915701C1110BC00E945A
:101F40001D24643C79408105910520F081E0809357
:101F50005701C1E08C2FCF910895FF920F931F93EB
:101F6000CF93DF93D82F0FB607FE83C080917F03F6
:101F7000843081F08091070190E001962091090161
:101F800030E0822393232091080130E082179307E9
:101F900009F0CBC00E949A0F811110C080910701F7
:101FA00090E001962091090130E082239323209153
:101FB000080130E08217930709F0B7C00E9411248E
:101FC0008C01C091E900CF709091EC00892F817055
:101FD00090FD80E8C82B83E08093E90085E0F82E2F
:101FE0008091EB0085FD42C08091EB0080FF3EC0F8
:101FF0008091EE0087FF3AC080910801909107011F
:10200000981709F457C09091E80095FF8CC0E091B3
:102010000501F0910601E80FF11D20818F5F90917D
:1020200009018923809308012093F1008091E80041
:1020300085FDE2CF8091E80080FFDECF8091E8004F
:102040008E778093E800F0920401D6CF809107014B
:1020500090E001962091090130E0822393232091A2
:10206000080130E08217930709F44AC0CF70C0938B
:10207000E90040910701842F90E001962091090129
:1020800030E0822393232091080130E082179307E8
:1020900009F44EC0E0910501F0910601E40FF11D35
:1020A000D083809107018F5F9091090189238093EC
:1020B00007013EC08091E80085FF35C0D093F10054
:1020C00081E02091F2003091F300232B91F0909168
:1020D000E80090FF0EC09091E80095FF03C01092B9
:1020E000F100F9CF9091E8009E779093E800F0928C
:1020F0000401882309F4AACFCF70C093E90018C067
:1021000080910401882309F4B1CF0E9411249C011D
:102110008017910711F4890163CF909104019150C8
:1021200090930401F8CF80E0CCCF40910701B2CF6B
:1021300080E0DF91CF911F910F91FF9008958091E2
:102140007E03811104C00E94B2150C9414160895E8
:1021500010927E030895089542E061EC81E00E94B0
:10216000C31242E061EC82E00E94C31242E261ECE1
:1021700083E00E94C31242E261EC84E00C94C3123B
:1021800080918103833009F455C030F4813071F0BF
:10219000823009F48EC008958A3009F47AC08B30F9
:1021A00009F460C0893009F09CC020C08091800390
:1021B000813A09F096C08091E800877F8093E8001B
:1021C0008091840390918503892B21F460E289E555
:1021D00092E003C060E080E090E070E00E9497131E
:1021E0008091E8008B778093E800089580918003C8
:1021F000813209F076C08091840390918503009725
:1022000019F0039709F06DC08091E800877F8093F3
:10221000E8008091E80082FD05C080917F03811174
:10222000F8CF5FC08091F100809379028091E8003F
:102230008B7753C080918003813A09F052C080911E
:10224000840390918503892B09F04BC08091E800AD
:10225000877F8093E8008091E80080FFFCCF809129
:10226000140136C0809180038132D9F580918403B6
:1022700090918503892BA9F58091E800877F809351
:10228000E8000E94F81280918203809314010C945C
:10229000AA1980918003813221F58091E800877F1F
:1022A0008093E8000E94F8128091830380937A0261
:1022B000089580918003813AA1F48091E800877F9E
:1022C0008093E8008091E80080FFFCCF80917A0243
:1022D0008093F1008091E8008E778093E8000C9461
:1022E000F812089580917902809358011092790232
:1022F0000E94FB0A0C94AA190C9472110E94BE232E
:1023000080917D03882329F00E94CB2381110C94B6
:10231000AD1208950E94DF238091580180937902C5
:1023200008950C948A1108950C949311CF9384B757
:10233000877F84BF0FB6F894A8958091600088616C
:1023400080936000109260000FBE90E080E80FB6AE
:10235000F89480936100909361000FBE8DEA9FE036
:102360000E9491238AE091E00E941D178AE595E082
:102370000E94C5050E94E40A0E94D1170E94B2156E
:102380000E94141678940E94D31780917F038430A2
:1023900029F00E9402170E949311F7CF88E495E07C
:1023A0000E94C5050E94941186E395E00E94C50530
:1023B000C3E080917F03853019F40E947E11F9CF2C
:1023C0000E94D7172091E4003091E50080915501DB
:1023D000909156012817390709F466C08091E400EE
:1023E0009091E50090935601809355010E949A0FB9
:1023F000882309F459C080917F03843009F054C0C8
:102400008091E9008F702091EC00922F917020FD57
:1024100090E8892BC093E9009091EB0090FF41C0B8
:102420009091EE0097FF3DC0909108012091070127
:10243000291709F12091E80025FF1DC0E091050151
:10244000F0910601E90FF11D30819F5F2091090194
:102450009223909308013093F1009091E80095FD4C
:10246000E3CF9091E80090FFDFCF9091E8009E7756
:102470009093E800D9CF2091F2003091F300232B04
:1024800081F09091E80090FF0CC09091E80095FFDA
:1024900003C01092F100F9CF9091E8009E779093DD
:1024A000E8008F708093E9000E94021782CF292FE5
:1024B000332723303105C9F060F42130310581F034
:1024C0002230310509F041C084E790E02AEB35E085
:1024D00040C021323105E1F02232310531F135C001
:1024E00082E190E02EE236E034C0992781309105F8
:1024F00049F028F0029749F5E0E7F5E005C0E6EB82
:10250000F5E002C0E6EAF5E0849190E09F0121C089
:1025100064307105D0F4660F771FFB01EC5DFE4F50
:102520002081318189E090E014C06430710568F445
:10253000FB01EE0FFF1FE45EFE4F20813181FB01A6
:10254000E85EFE4F808190E004C080E090E020E0F3
:1025500030E0FA0131832083089584E189BD86E16A
:1025600089BD09B400FEFDCF8091D8008F7D809396
:10257000D8008091E00082608093E0008091E000CC
:1025800081FDFCCF0895982F973068F59093E9006E
:10259000981739F07091EC002091ED005091F00007
:1025A00003C0242F762F50E021FD02C09F5FECCFA7
:1025B0003091EB003E7F3093EB003091ED003D7F9A
:1025C0003093ED003091EB0031603093EB0070936D
:1025D000EC002093ED005093F0002091EE0027FDD9
:1025E000E5CF80E008958F708093E90081E0089541
:1025F0008091800387FF11C08091E80082FD05C0B3
:1026000080917F038111F8CF11C08091E8008B7712
:102610000BC080917F03882349F08091E80080FF00
:10262000F8CF8091E8008E778093E800089520919C
:10263000E4003091E50095E64091EC00842F817034
:1026400040FF23C08091E80080FD1DC080917F0382
:10265000882399F0853099F08091EB0085FD11C0B9
:102660004091E4005091E5002417350729F391507B
:1026700011F09A01E1CF84E0089582E0089583E0AB
:10268000089581E0089580E008954091E80042FFB8
:10269000DDCF0895CF92DF92EF92FF920F931F93B9
:1026A000CF93DF93EC018B017A010E941713811104
:1026B00035C0E114F10439F0F70180819181081BE4
:1026C000190BC80FD91FC12CD12C0115110529F1E7
:1026D0008091E80085FD18C08091E8008E77809396
:1026E000E8000E940217E114F10449F0F70180812B
:1026F0009181C80ED91ED182C08285E00FC00E9490
:102700001713882311F30AC089918093F1000150B7
:102710001109FFEFCF1ADF0AD8CF80E0DF91CF9108
:102720001F910F91FF90EF90DF90CF90089520912F
:102730008603309187032617370748F06115710526
:1027400039F42091E8002E772093E80001C0B90108
:10275000FC0120E06115710569F180917F038823F8
:10276000E1F18530E1F18091E80083FD3AC080918C
:10277000E80082FD2CC08091E80080FFEBCF8091C3
:10278000F2009091F3006115710551F088309105C8
:1027900038F421912093F100615071090196F3CF33
:1027A00021E0089709F020E08091E8008E7780937F
:1027B000E800D0CF2111D1CF0AC080917F038823B8
:1027C00061F0853061F08091E80083FD0AC080915E
:1027D000E80082FFF2CF80E0089582E0089583E070
:1027E000089581E00895209186033091870326178C
:1027F000370748F06115710539F42091E8002E770C
:102800002093E80001C0B901FC0120E061157105C9
:1028100081F180917F03882309F43EC0853009F45B
:102820003DC08091E80083FD3BC08091E80082FDBF
:102830002DC08091E80080FFE9CF8091F200909157
:10284000F3006115710559F08830910540F4249129
:102850002093F1003196615071090196F2CF21E089
:10286000089709F020E08091E8008E778093E800D7
:10287000CDCF2111CECF0AC080917F03882361F094
:10288000853061F08091E80083FD0AC08091E80006
:1028900082FFF2CF80E0089582E0089583E00895FA
:1028A00081E008951F93CF93DF93CDB7DEB7AA974A
:1028B0000FB6F894DEBF0FBECDBFE0E8F3E0809125
:1028C000F100819323E0E838F207C9F70E94C010B5
:1028D0008091E80083FF2EC1809180039091810355
:1028E000492F50E04A30510508F024C1FA01EB5C51
:1028F000FE4F0C943526803821F0823809F01AC139
:1029000008C080917C0390917D03992389F08260B7
:102910000FC0809184038F70873008F00BC18093C3
:10292000E9008091EB0085FB882780F91092E9008F
:102930009091E800977F9093E8008093F1001092C7
:10294000F100D1C0282F2D7F09F0F4C0882319F0A1
:10295000823061F0EFC080918203813009F0EAC0DB
:10296000933009F080E080937D032EC08091820334
:1029700081112AC0809184038F702FEF280F263099
:1029800008F0D8C08093E9002091EB0020FF1CC024
:10299000933021F48091EB00806214C09091EB00A1
:1029A00090619093EB0021E030E0A90102C0440F58
:1029B000551F8A95E2F74093EA001092EA00809151
:1029C000EB0088608093EB001092E9008091E800B2
:1029D000877F8093E8000E94F812ACC08111AAC0E2
:1029E000109182031F778091E3008078812B809380
:1029F000E3008091E800877F8093E8000E94F8124E
:102A00008091E80080FFFCCF8091E3008068809394
:102A1000E300111102C082E001C083E080937F03D4
:102A200089C08058823008F085C0809182039091DF
:102A300083038C3D53E0950779F583E08A838AE22E
:102A400089834FB7F894DE01139620E03EE051E20F
:102A5000E32FF0E050935700E49120FF03C0E2958C
:102A6000EF703F5FEF708E2F90E0EA3010F0C79666
:102A700001C0C0968D939D932F5F243149F74FBFBE
:102A80008091E800877F8093E8006AE270E0CE01E1
:102A900001960E94971316C060918403709185037C
:102AA000AE014F5F5F4F0E945712BC01892B09F4A2
:102AB00041C09091E800977F9093E80089819A81C6
:102AC0000E94F3138091E8008B778093E80032C076
:102AD000803881F58091E800877F8093E8008091BD
:102AE0007B038093F1008091E8008E7772CF811193
:102AF00021C0809182039091830399270297D4F497
:102B00008091E800877F8093E80080918203809322
:102B10007B030E94F81280917B03811106C0809193
:102B2000E30087FD02C081E001C084E080937F0361
:102B30000E94AC108091E80083FF0AC08091E800F9
:102B4000877F8093E8008091EB0080628093EB00A8
:102B5000AA960FB6F894DEBF0FBECDBFDF91CF911E
:102B60001F9108950E9423160E942B16E0EEF0E0BC
:102B7000808181608083E8EDF0E080818F778083C1
:102B800019BCA7EDB0E08C918E7F8C9380818F7EF5
:102B9000808310927E0308950F931F93CF93DF934A
:102BA0000E9423160E942B16C8EDD0E088818F77F3
:102BB000888388818068888388818F7D8883E7ED1A
:102BC000F0E080818068808319BC10927F031092AE
:102BD0007B0310927D0310927C0300EE10E0F8015D
:102BE00080818B7F808388818160888342E060E080
:102BF00080E00E94C312E1EEF0E080818E7F80834E
:102C0000E2EEF0E080818160808380818860808353
:102C1000F80180818E7F8083888180618883DF9145
:102C2000CF911F910F910895E8EDF0E080818F7EA4
:102C30008083E7EDF0E080818160808381E0809394
:102C40007E030C94CC15E8EDF0E080818C7F8083CE
:102C50001092E20008951092DA001092E1000895B7
:102C60001F920F920FB60F9211240BB60F922F9353
:102C70003F934F935F936F937F938F939F93AF9304
:102C8000BF93EF93FF938091E10082FF0BC080918F
:102C9000E20082FF07C08091E1008B7F8093E1001A
:102CA0000E9401178091DA0080FF1FC08091D80038
:102CB00080FF1BC08091DA008E7F8093DA008091C4
:102CC000D90080FF0DC084E189BD86E189BD09B4CA
:102CD00000FEFDCF81E080937F030E949F1005C01E
:102CE00019BC10927F030E94A8108091E10080FF20
:102CF00019C08091E20080FF15C08091E2008E7FB4
:102D00008093E2008091E20080618093E2008091F4
:102D1000D80080628093D80019BC85E080937F033F
:102D20000E947C118091E10084FF30C08091E2001C
:102D300084FF2CC084E189BD86E189BD09B400FE11
:102D4000FDCF8091D8008F7D8093D8008091E100E5
:102D50008F7E8093E1008091E2008F7E8093E2007D
:102D60008091E20081608093E20080917B03882360
:102D700011F084E007C08091E30087FD02C081E08C
:102D800001C083E080937F030E9491118091E10054
:102D900083FF24C08091E20083FF20C08091E10086
:102DA000877F8093E10082E080937F0310927B0312
:102DB0008091E1008E7F8093E1008091E2008E7F20
:102DC0008093E2008091E20080618093E20042E023
:102DD00060E080E00E94C3120E94AB10FF91EF916F
:102DE000BF91AF919F918F917F916F915F914F9123
:102DF0003F912F910F900BBE0F900FBE0F901F9021
:102E000018950895CF9380917F038823A1F0C091F6
:102E1000E900CF709091EC00892F817090FD80E8DF
:102E2000C82B1092E9008091E80083FD0E945214A3
:102E3000CF70C093E900CF91089590938002809362
:102E40007F020895E0917F02F0918002309721F097
:102E50000190F081E02D099480E00895EF92FF92B7
:102E60000F931F93CF93DF93E0917F02F091800245
:102E70003097B1F18C010280F381E02D09958091AA
:102E8000750382FF2DC080FF04C087E397E00E9496
:102E9000C505E80110E281E3E82E87E0F82E809175
:102EA000750380FF0BC088811F928F93FF92EF9272
:102EB0000E945E060F900F900F900F901150219678
:102EC0001111EDCF8091750380FF0AC08FE297E06A
:102ED000DF91CF911F910F91FF90EF900C94C5055A
:102EE000DF91CF911F910F91FF90EF900895CF93B5
:102EF000DF9320917D0230917E022817390709F176
:102F000090937E0280937D02E0917F02F091800297
:102F10003097B9F0EC010680F781E02D099580919A
:102F2000750382FF0EC080FF0CC0DF93CF9381E258
:102F300097E09F938F930E945E060F900F900F90E3
:102F40000F90DF91CF910895CF93DF9320917B0273
:102F500030917C022817390709F190937C02809305
:102F60007B02E0917F02F09180023097B9F0EC0192
:102F70000084F185E02D09958091750382FF0EC0D4
:102F800080FF0CC0DF93CF9381E197E09F938F93F5
:102F90000E945E060F900F900F900F90DF91CF91DF
:102FA00008950C947A180E9408240C94E80ABF92A1
:102FB000CF92DF92EF92FF920F931F93CF93DF9305
:102FC00000D000D01F92CDB7DEB70E94260B02E8DA
:102FD00012E0F12C8F2D0E94F50AB82EF801C08066
:102FE000C82639F4F3940F5F1F4FF0E1FF12F2CFC0
:102FF00030C08091750381FD0E947B18D12CEE2496
:10300000E3948C2D8E21F9F0D982FA8291E08B2DF8
:103010008E2109F490E09B830E9411248160782F17
:103020009D838C8349815A816B818D810E94B11867
:1030300049815A816B817C818D810E94A923F8018D
:1030400080818E258083D394EE0CF8E0DF12D9CFF7
:10305000C9CF8FEF89838A831B820E9411248160EC
:10306000782F9D838C8349815A816B818D810E9449
:10307000B1180E94A8230E942217909181028917FB
:1030800041F10E942217809381029091750392FF73
:103090000EC090FF0CC01F928F9382E497E09F9325
:1030A0008F930E945E060F900F900F900F9080916B
:1030B00081020F900F900F900F900F90DF91CF91A2
:1030C0001F910F91FF90EF90DF90CF90BF900C94E5
:1030D000BA230F900F900F900F900F90DF91CF9128
:1030E0001F910F91FF90EF90DF90CF90BF900895C8
:1030F0000C94030B0895EF92FF920F931F93CF93BD
:10310000DF938BE597E00E94C505C0E0D0E08CE23C
:10311000E82E81E0F82E0DE417E08C2F0E94F50ACE
:103120000E949623FF92EF921F928F93DF93CF938B
:103130001F930F930E945E0621968DB79EB7089647
:103140000FB6F8949EBF0FBE8DBFC031D10529F7D1
:10315000DF91CF911F910F91FF90EF900895089507
:103160000895CF93DF93CDB7DEB72B970FB6F894C2
:10317000DEBF0FBECDBF942F4F83252F58876987A1
:103180007A878B874A855B85452B31F02F3F31F459
:1031900081E09F3F19F403C081E001C080E080FD21
:1031A00007C04F81588569857A858B850E94A92340
:1031B000DE01119686E0FD0111928A95E9F785E01E
:1031C000FE01379601900D928A95E1F749815A8167
:1031D0006B817C818D819E810E94A41F2B960FB6EE
:1031E000F894DEBF0FBECDBFDF91CF910895CF938E
:1031F000882309F465C0C82F8CEF8C0F813A20F02A
:1032000080E58C0F8E3248F48C2F0E94E2258111CC
:1032100057C08C2F0E948C220CC080E28C0F88300B
:1032200058F4C77081E001C0880FCA95EAF70E9480
:103230003123CF910C946B238BE58C0F833078F482
:10324000C53A29F0C63A31F083E890E005C081E83C
:1032500090E002C082E890E0CF910C94771788E567
:103260008C0F873168F5C83A89F0C93A91F0CA3AAB
:1032700099F0CB3AA1F0CC3AA9F0CD3AB1F0CE3AE0
:10328000B9F0CF3AC1F080E090E017C082EE90E054
:1032900014C089EE90E011C08AEE90E00EC085EB7C
:1032A00090E00BC086EB90E008C083EB90E005C097
:1032B00084EB90E002C087EB90E0CF910C94A417D0
:1032C000CF910895882349F19CEF980F913A20F00F
:1032D00090E5980F9E3218F40E94DC220DC090E217
:1032E000980F983058F4877091E001C0990F8A9533
:1032F000EAF7892F0E9437230C946B239BE5980FE4
:10330000933020F480E090E00C947717885A87314E
:1033100020F480E090E00C94A4170895882321F015
:103320000E9431230C946B230895882321F00E947E
:1033300037230C946B2308950E9451230E9420236D
:103340000E946B2380E090E00E94771780E090E07D
:103350000C94A4170E9441230C949C19CF92DF92E5
:10336000EF92FF920F931F93CF93DF9300D000D083
:103370001F92CDB7DEB76C010E94BC238111EAC257
:1033800085E0F601DE01119601900D928A95E1F734
:10339000F60140815181238134812115310531F0BD
:1033A0005F3F31F481E04F3F19F403C081E001C079
:1033B00080E080FDCFC2F601F280E580E2948FE0EC
:1033C000E82249835A83FB82722F3D832C836F2D21
:1033D0008D810E9408228C010E9407220E94F72002
:1033E000E12FE295EF708E2F90E0FC01E15CFE4F43
:1033F0000C943526812F807F1F70882311F0129541
:10340000107FFF2049F0112309F43BC2812F0E9455
:1034100044230E946B2335C2802F0E94621911231E
:1034200009F498C2812F0E944A230F900F900F90A9
:103430000F900F90DF91CF911F910F91FF90EF9020
:10344000DF90CF900C946B23812F807F1F70803290
:1034500011F01295107F002319F0013009F12BC0F3
:10346000FF20A9F0EE2059F1F1E0812FEF1228C0E2
:103470000F900F900F900F900F90DF91CF911F91B1
:103480000F91FF90EF90DF90CF900C945423EE209B
:1034900021F021E0E21609F45DC20E9457232DC0FD
:1034A000FF20E9F085E08E1508F454C20E942E2317
:1034B000812329F022C0FF20F1F0E11015C0812FF7
:1034C0000F900F900F900F900F90DF91CF911F9161
:1034D0000F91FF90EF90DF90CF900C948E1994E0B5
:1034E0009E1508F437C209C0F601858180FFC9C165
:1034F0008F708583E4CFE110D7C1812F4AC1812F1E
:1035000086958695837019F08130B9F023C2FF202B
:1035100019F0C801937002C080E090E00F900F9006
:103520000F900F900F90DF91CF911F910F91FF900F
:10353000EF90DF90CF900C947717FF2019F0C8011F
:10354000937002C080E090E00F900F900F900F906A
:103550000F90DF91CF911F910F91FF90EF90DF902F
:10356000CF900C94A417812F837009F070C0F110D4
:10357000F1C1202F229526952770220F220F602F50
:103580006F70862F90E0A0E0B0E06C017D01022E0C
:1035900004C0CC0CDD1CEE1CFF1C0A94D2F704FF07
:1035A00012C08FE090E0A0E0B0E004C0880F991F47
:1035B000AA1FBB1F2A95D2F7BC01CD01609570955B
:1035C0008095909503C060E070E0CB01169516954C
:1035D00013701230B1F040F56C297D298E299F2996
:1035E000113031F10F900F900F900F900F90DF91ED
:1035F000CF911F910F91FF90EF90DF90CF900C949F
:103600001C216C297D298E299F290F900F900F90E6
:103610000F900F90DF91CF911F910F91FF90EF903E
:10362000DF90CF900C9436210E941C21C701B60177
:103630000F900F900F900F900F90DF91CF911F91EF
:103640000F91FF90EF90DF90CF900C940221FF201C
:1036500019F0812F817001C08695882309F47AC101
:10366000202F229526952770220F220F602F6F7032
:10367000862F90E0A0E0B0E06C017D01022E04C036
:10368000CC0CDD1CEE1CFF1C0A94D2F704FF12C008
:103690008FE090E0A0E0B0E004C0880F991FAA1F5F
:1036A000BB1F2A95D2F7BC01CD016095709580951E
:1036B000909503C060E070E0CB01169516951370ED
:1036C0001230B1F040F56C297D298E299F291130E7
:1036D00031F10F900F900F900F900F90DF91CF91DD
:1036E0001F910F91FF90EF90DF90CF900C94E3210A
:1036F0006C297D298E299F290F900F900F900F9094
:103700000F90DF91CF911F910F91FF90EF90DF907D
:10371000CF900C94F5210E94E321C701B6010F90D0
:103720000F900F900F900F90DF91CF911F910F91FD
:10373000FF90EF90DF90CF900C94D121003FC1F12A
:1037400028F480E4800F803250F096C0023F09F4E4
:103750005EC008F449C0033F09F46CC08DC0F02F6F
:10376000F071EF2E812F8F71FF2051F00E946A219E
:10377000802FEE2019F08295807FA2CE8F70A0CE90
:103780000E948B21802FEE2019F08295807F01C04E
:103790008F700F900F900F900F900F90DF91CF913F
:1037A0001F910F91FF90EF90DF90CF900C9495199F
:1037B000FF20A9F024E02E1508F4CCC0812F8F71D2
:1037C0000F900F900F900F900F90DF91CF911F915E
:1037D0000F91FF90EF90DF90CF900C94B02185E097
:1037E0008E1508F4B7C0EACFFF2099F0812F8F71B2
:1037F0000F900F900F900F900F90DF91CF911F912E
:103800000F91FF90EF90DF90CF900C946A21FF20F2
:1038100069F3812F8F710F900F900F900F900F9081
:10382000DF91CF911F910F91FF90EF90DF90CF909C
:103830000C948B21FF2089F0812F8F710F900F90B6
:103840000F900F900F90DF91CF911F910F91FF90EC
:10385000EF90DF90CF900C9455210F900F900F9028
:103860000F900F90DF91CF911F910F91FF90EF90EC
:10387000DF90CF900C945021FF2099F0EE2009F4B6
:10388000B5CF802F0F900F900F900F900F90DF917A
:10389000CF911F910F91FF90EF90DF90CF900C94FC
:1038A000F718EE2009F4B5CF802F0F900F900F90EE
:1038B0000F900F90DF91CF911F910F91FF90EF909C
:1038C000DF90CF900C946219412F4F70602FC6018A
:1038D0000E947D240F900F900F900F900F90DF911A
:1038E000CF911F910F91FF90EF90DF90CF900C94AC
:1038F000522001112FC0FF2069F10E94AA199FEFE9
:10390000E0E7F2E09150E040F040E1F700C0000055
:103910000F900F900F900F900F90DF91CF911F910C
:103920000F91FF90EF90DF90CF900C945E24412F89
:103930004F70602FC6010F900F900F900F900F9057
:10394000DF91CF911F910F91FF90EF90DF90CF907B
:103950000C9480240F900F900F900F900F90DF9198
:10396000CF911F910F91FF90EF90DF90CF9008952E
:103970001F93CF93DF9300D000D01F92CDB7DEB757
:10398000942F4983252F5A836B837C838D834C81AD
:103990005D81452B31F02F3F31F481E09F3F19F4D9
:1039A00003C081E001C080E0182F117080FD31C09C
:1039B00049815A816B817C818D810E940822292F47
:1039C00022952F702C3030F42A30A0F4225022306F
:1039D00030F022C02C30C9F02F30B9F01DC0853A2C
:1039E00028F48430C0F4823028F415C090E2980F97
:1039F000983088F0883E30F4803E68F48450813AF4
:103A000058F409C0803F41F406C093FB112710F918
:103A100003C010E001C011E0812F0F900F900F90B4
:103A20000F900F90DF91CF911F910895CF93DF9367
:103A300000D000D01F92CDB7DEB70F900F900F903F
:103A40000F900F90DF91CF910895CF93DF9300D027
:103A500000D000D0CDB7DEB726960FB6F894DEBF03
:103A60000FBECDBFDF91CF9108951F93CF93DF930A
:103A7000C091920216E080919302C81799F0D0E0AD
:103A80001C9FF0011D9FF00D1124EC56FD4F40814D
:103A9000518162817381848195810E94251D2196C7
:103AA000C770E9CFDF91CF911F9108954091C40273
:103AB0005091C5026091C6027091C7028091C80200
:103AC0009091C9020C94251D0F931F93CF93DF9300
:103AD0008091C90282958F7009F05DC08091C60205
:103AE000882309F458C0809192021091930260914A
:103AF000C4027091C502C091C702D091C80291E082
:103B00006F3F09F090E0292F06E0811709F443C0C8
:103B1000209721F07F3F21F030E003C031E001C069
:103B2000322F90E030FD34C0089FF001099FF00D66
:103B30001124DF01AC56BD4F11963C9111973713FC
:103B400027C03C91361324C012963C911297311134
:103B50001FC013964D915C9114974C1B5D0B483C14
:103B60005105B0F48091C9028F7080618093C902C1
:103B7000E756FD4F80818F708061808384EC92E0F6
:103B80000E94AE19DF91CF911F910F910C94351DBA
:103B900001968770BACFDF91CF911F910F91089551
:103BA0009F92AF92BF92CF92DF92EF92FF920F93CC
:103BB0001F93CF93DF93CDB7DEB761970FB6F8941D
:103BC000DEBF0FBECDBF8C0185E0F801DE011D9682
:103BD00001900D928A95E1F7F80140815181F280C0
:103BE000C380D4809091C4026091C5022091C70225
:103BF0003091C8022115310531F06F3F31F481E079
:103C00009F3F19F403C081E001C080E0F82FF170FC
:103C10009F2E80FD52C184ECA82E82E0B82EE09049
:103C2000C602F601E21BF30BEE2009F4E8C0809116
:103C3000C902E83CF10508F0A4C0282F207F09F054
:103C400053C0561313C0491311C0EF2CF1100EC00E
:103C50008F7080618093C9020E94561DC5010E9429
:103C6000AE198091C902F80185835BC1C114D104EA
:103C700031F05F3F31F481E04F3F19F403C081E040
:103C800001C080E080FD03C081E08F2502C080E09C
:103C900090E0F82FF170EF2E80FF1CC0809192020F
:103CA0002091930236E0821709F418C190E0389F02
:103CB000F001399FF00D1124EC56FD4F6181561330
:103CC00006C06081461303C06281F61203C00196EC
:103CD0008770E9CFEF2CFF2009F423C18091C9023E
:103CE00081608093C90262C0561306C0491304C0A4
:103CF000F11002C0F801A7C04D875E87FF867C2DBA
:103D0000D98AC88A6F2D89890E94B81C882399F1A5
:103D1000FF2089F12091C902822F82958F7090E057
:103D2000029774F08091C4029091C50298878F83A6
:103D30001986DB86CA862C87CE0107960E94AE19AB
:103D400086E0F801A4ECB2E001900D928A95E1F7CB
:103D50000E94641D0E94561D11C0561749F14D87DF
:103D60005E87FF867C2DD98AC88A6F2D89890E943B
:103D7000B81C81112CC0C8010E94AE19EE24E39436
:103D8000D0C0282F207F49F77C2DD98AC88A6F2D73
:103D900089890E94161D84EC92E00E94AE1986E08B
:103DA000F50111928A95E9F70E94561DE12CB9C0E0
:103DB0004913D5CFF110D3CFF8018583C8010E94F4
:103DC000AE1986E0F50111928A95E9F7AAC0FF20A5
:103DD00091F22091C902822F82958F7090E0029714
:103DE0000CF4AECF8091C4029091C5029A8389836E
:103DF0001B82DD82CC822E83CE0101969FCFE83CD0
:103E0000F10508F04BC0EF2CFF2009F4B4CF561396
:103E100030C049132EC02091C90220FD21C0822F3D
:103E200082958F70482F50E041155105C9F0F80177
:103E300025834F30510541F08F5F982F9295907FE9
:103E4000822F8F70892B8583C8010E94AE1986E06E
:103E5000F801A4ECB2E001900D928A95E1F72AC036
:103E600086E0F801A4ECB2E001900D928A95E1F7AA
:103E700058C04D875E87FF867C2DD98AC88A6F2DF2
:103E800089890E94B81C81115BCF8091C902816031
:103E90008093C902C8010E94AE1943C07C2DD98A03
:103EA000C88A6F2D89890E94161D86E0F50111923E
:103EB0008A95E9F70E94561D34C0FF2009F45BCFB4
:103EC0004D875E87FF867C2DD98AC88A6F2D8989A8
:103ED0000E94B81C882309F44ECF32CF7C2DD98A9A
:103EE000C88A6F2D89890E940822292F22952F7058
:103EF000223028F49F7039F0811105C00BC02430A6
:103F000028F49F7049F4805E883020F0C8010E9438
:103F1000AE199E2CE92C05C0F8019581907F99F788
:103F2000F9CF8E2D61960FB6F894DEBF0FBECDBFD0
:103F3000DF91CF911F910F91FF90EF90DF90CF9085
:103F4000BF90AF909F9008951F93CF93DF93CDB70D
:103F5000DEB72C970FB6F894DEBF0FBECDBF4F83F0
:103F6000588769877A878B879C87CE0107960E943E
:103F7000D01D8823D1F09F8188852A853B85232BFE
:103F800031F08F3F31F481E09F3F19F403C081E0AD
:103F900001C080E080FD47C04F81588569857A85E2
:103FA0008B859C850E94251D3EC086E0FE013796CC
:103FB000DE01119601900D928A95E1F7FF81E88567
:103FC0006A857B856115710531F0EF3F31F481E041
:103FD000FF3F19F403C081E001C080E080FD23C0F1
:103FE0002091930230E0C901019687709927409192
:103FF000920250E084179507F1F1F983EA837D83FB
:104000006C8396E0929FD001939FB00D1124AC5623
:10401000BD4FFE01319601900D929A95E1F7809384
:1040200093020E94351D16E08091920290919302B6
:10403000891771F1189FC00111248C569D4F0E9461
:10404000D01D882329F1E09192021E9FF0011124D6
:10405000EC56FD4F4081518162817381848195814D
:104060000E94251D8091920290E001968770992709
:1040700080939202D9CF0E94AA19109293021092B3
:104080009202E4ECF2E086E0DF011D928A95E9F706
:104090002C960FB6F894DEBF0FBECDBFDF91CF9147
:1040A0001F910895DF92EF92FF920F931F93CF938A
:1040B000DF93FC01892B09F488C0E12CF12CDD246D
:1040C000D394EF0121968491853709F460C058F4A8
:1040D000843708F04EC0843008F068C08130D1F0D9
:1040E000823071F172C0883709F45BC050F48637B2
:1040F00009F453C0873709F068C08E2D0E943E2313
:1041000052C09CE7980F903708F05FC08F770E94ED
:1041100062194EC08F010E5F1F4FFE01849190E225
:10412000980F983050F48770FD2D01C0FF0F8A95CD
:10413000EAF78F2F0E94442315C00E94F71814C07D
:104140008F010E5F1F4FFE01849190E2980F98300F
:1041500068F48770FD2D01C0FF0F8A95EAF78F2F55
:104160000E944A230E946B23E80122C00E94621928
:10417000FBCFCF010296FE01C491CC2361F0EFE9A1
:10418000FFE03197F1F700C00000C150F6CFCF013A
:104190000296FE01F490EC010BC00E942E23E82E43
:1041A00007C00E9441230E946B2302C00E94F7189F
:1041B0008F2D882341F0EFE9FFE03197F1F700C040
:1041C00000008150F6CFFE017CCFDF91CF911F918F
:1041D0000F91FF90EF90DF90089560934A037093E2
:1041E0004B0380934C0390934D030C94B923089593
:1041F00060934E0370934F03809350039093510349
:104200000C94B8230F931F9300914E0310914F030A
:104210002091500330915103602B712B822B932BF3
:1042200060934E0370934F03809350039093510318
:104230001F910F910C94B8230F931F9300914E037D
:1042400010914F032091500330915103602371234B
:104250008223932360934E0370934F038093500304
:10426000909351031F910F910C94B8230F931F93B8
:1042700000914E0310914F03209150033091510350
:10428000602771278227932760934E0370934F0313
:1042900080935003909351031F910F910C94B82376
:1042A00060E070E0CB010C94ED200F931F9341E090
:1042B00050E060E070E08A019B0104C0000F111F14
:1042C000221F331F8A95D2F7C901B8011F910F91A0
:1042D0000C94ED200F931F9341E050E060E070E0FC
:1042E00004C0440F551F661F771F8A95D2F780912F
:1042F0004A0390914B03A0914C03B0914D038A0166
:104300009B01082B192B2A2B3B2BC901B8011F91AC
:104310000F910C94ED200F931F9341E050E060E06B
:1043200070E004C0440F551F661F771F8A95D2F7AF
:10433000409550956095709580914A0390914B03FC
:10434000A0914C03B0914D038A019B0108231923CE
:104350002A233B23C901B8011F910F910C94ED2032
:104360000F931F9341E050E060E070E004C0440F01
:10437000551F661F771F8A95D2F780914A03909147
:104380004B03A0914C03B0914D038A019B01082778
:1043900019272A273B27C901B8011F910F910C94B7
:1043A000ED200F931F9300914A0310914B0320912E
:1043B0004C0330914D03602B712B822B932B1F915B
:1043C0000F910C94ED200F931F9300914A031091CD
:1043D0004B0320914C0330914D03602371238223C2
:1043E00093231F910F910C94ED200F931F93009135
:1043F0004A0310914B0320914C0330914D036027E9
:104400007127822793271F910F910C94ED20089517
:104410008F929F92AF92BF92DF92EF92FF920F9393
:104420001F93CF93DF9300D000D01F92CDB7DEB79C
:104430006B837C838D838A018C819D81892B31F0F4
:104440001F3F31F481E04F3F19F403C081E001C008
:1044500080E080FF03C080E090E04DC08B81882326
:10446000D1F180904A0390904B03A0904C03B09000
:104470004D0380914E0390914F03A0915003B09152
:104480005103882A992AAA2ABB2A8FE1E82EF12C07
:10449000D501C4010E2C04C0B695A79597958795B4
:1044A0000A94D2F780FD06C081E0E81AF10880F78F
:1044B000D12C07C0DE2CB8018E2D0E946706019713
:1044C00099F388E0189FF0011124E653FD4FE00FA7
:1044D000F11DD08209C088E0189FF0011124E65335
:1044E000FD4FE00FF11DD08009831A8369817A8125
:1044F0008D2D0E9467060F900F900F900F900F90D8
:10450000DF91CF911F910F91FF90EF90DF90BF90BF
:10451000AF909F908F90089590911401992379F115
:1045200090911501992359F1982F96959695969506
:104530009F31A1F0E0911601F0911701E90FF11DF3
:10454000877021E030E0A90102C0440F551F8A9511
:10455000E2F7CA019181892B8183089590917503B7
:1045600090FF29C01F928F9387E897E09F938F93C6
:104570000E945E060F900F900F900F90089520916B
:10458000160130911701F90132969FEF40E05191E9
:10459000851789F09F3F19F4511101C0942F4F5F87
:1045A0004E31A9F79F3F39F0F901E90FF11D97FD51
:1045B000FA9582830895089590911401992381F1C9
:1045C00090911501992361F1982F9695969596955E
:1045D0009F31A9F0E0911601F0911701E90FF11D4B
:1045E000877021E030E0A90102C0440F551F8A9571
:1045F000E2F7CA0180959181892381830895909182
:10460000750390FF1CC01F928F9389E697E09F93DC
:104610008F930E945E060F900F900F900F90089559
:10462000E0911601F09117019F01225E3F4F9281A8
:10463000891301C012823196E217F307C1F708957A
:1046400081E090E0E0911601F0911701E80FF91F69
:104650001082019680329105A9F708958091740324
:10466000089590917403892B809374030895809525
:104670009091740389238093740308958093740345
:10468000089510927403089590917303892B809379
:104690007303089580959091730389238093730326
:1046A0000895109273030895809352030895109211
:1046B000520308958091160190911701FC013196E3
:1046C0009C01205E3F4F80E0919191118F5FE21736
:1046D000F307D1F70895E0911601F0911701809149
:1046E00074038083E0911601F0911701908180910D
:1046F0007303892B808380915203882361F0E091BA
:104700001601F09117019081892B80830E945A2312
:1047100081111092520380911601909117010C940F
:104720002E17909335018093340108958295982F28
:10473000937344E0949F900111248C7C8695869518
:10474000282B822F8575880F2A7A2695822B08952B
:104750000895CF93DF9300D000D01F92CDB7DEB77E
:104760000F900F900F900F900F90DF91CF910895C1
:10477000089508950C94781880E0089583B7817F98
:104780008C6083BF83B7816083BF7894889583B73B
:104790008E7F83BF0895CF930E94AF180E94260B8F
:1047A0000E94B018C0E08C2F0E94F50A811104C04D
:1047B000CF5FC031C1F701C081E0CF9108950E9461
:1047C000FB0A0C94AA191F920F920FB60F92112494
:1047D0008F939F93AF93BF938091760390917703CC
:1047E000A0917803B09179034196A11DB11D8093EA
:1047F000760390937703A0937803B0937903BF91E6
:10480000AF919F918F910F900FBE0F901F901895B1
:1048100082E084BD93E095BD9AEF97BD80936E00D2
:1048200008952FB7F8948091760390917703A09123
:104830007803B09179032FBF08952FB7F894609152
:1048400076037091770380917803909179032FBF5D
:1048500008959C014FB7F894809176039091770367
:10486000A0917803B09179034FBF821B930B0895F9
:1048700078941F920F920FB60F9211248F939F93EB
:10488000AF93BF938091760390917703A0917803C3
:10489000B09179030196A11DB11D80937603909389
:1048A0007703A0937803B0937903BF91AF919F9161
:1048B0008F910F900FBE0F901F9018950E94B21508
:1048C000F89487E797E7909301088093000887E0C2
:1048D00090EBDC018093880390938903A0938A0373
:1048E000B0938B039CE088E10FB6F894A895809371
:1048F00060000FBE90936000FFCF80E090E00895CD
:104900000895CF93C82F1F928F938BEA97E09F93C0
:104910008F930E945E0681E090E0A0E0B0E0BC01D1
:10492000CD0104C0660F771F881F991FCA95D2F763
:104930000E94F8200F900F900F900F90CF910C9441
:10494000AA19CF938732A8F58E3108F02BC1803198
:1049500009F49FC0F8F4873009F464C0A8F48630E5
:1049600009F024C180917503817F8E7F8093750348
:1049700080EB97E00E94C50583E99AE00E94C50597
:1049800081E080937A034CC08B30F1F18E3009F4D2
:104990006CC00CC1863109F4B0C020F4813109F437
:1049A000EDC004C1893109F491C08B3109F449C0CB
:1049B000FDC0883349F150F4893209F4F1C08533E0
:1049C00009F4EEC0873209F0F1C0EAC0833409F47B
:1049D000E7C028F48A3308F4E9C08953E4C0883476
:1049E00009F0E4C00E94AA1982E89AE00E94C50575
:1049F0002FEF83ED90E3215080409040E1F700C01D
:104A000000000E945E240CC08BEC97E05CC089E63D
:104A10009AE00E94C50580917503816080937503BB
:104A2000C1E0C9C080917503C82FC17080FFEFCF6E
:104A300085E79AE00E94C50580917503817F8E7F8E
:104A40003DC09091750391FBCC27C0F981E0C82748
:104A5000892FC0FB81F980937503CC2319F08CE575
:104A60009AE027C08EE49AE02EC09091750392FBE5
:104A7000CC27C0F981E0C827892FC0FB82F9809339
:104A80007503CC2319F08FE39AE013C08FE29AE00C
:104A90001AC09091750393FBCC27C0F981E0C82719
:104AA000892FC0FB83F980937503CC2351F083E2F7
:104AB0009AE00E94C505809175038160809375031B
:104AC0007AC086E19AE00E94C505AACF87E09AE005
:104AD0000E94C50581EE99E00E94C50589E999E02B
:104AE0000E94C50581E799E00E94C50585E299E02D
:104AF0000E94C50589EF98E0E6CF8BEE98E00E9412
:104B0000C5050E9422171F928F9381ED98E09F9315
:104B10008F930E945E06809114011F928F938AEBFF
:104B200098E09F938F930E945E0680917A021F9275
:104B30008F9387EA98E09F938F930E945E068091FF
:104B400015011F928F9384E998E09F938F930E94A1
:104B50005E060E941D249F938F937F936F938DE732
:104B600098E09F938F930E945E068DB79EB74696FE
:104B70000FB6F8949EBF0FBE8DBF52CF0E94AA19E8
:104B8000C091150181E0C827C0931501CC2329F0FD
:104B900083E798E00E94C5050EC088E698E093CFB1
:104BA00080E001C08D510E9481243ACF86E698E0D2
:104BB0000E94C505C0E08C2FCF91089580E0089534
:104BC0000C94DE25CF93C82F80917A03882319F0A7
:104BD000813059F042C0E0911601F09117018081B7
:104BE000823261F08434D9F509C0E0911601F09168
:104BF00017018081823211F0843461F48C2F0E947D
:104C0000E025811104C08C2F0E94A12424C081E0E2
:104C100090E021C08C2F0E94DE2581111BC0C43181
:104C200089F018F4CB3029F010C0C93259F0C833DC
:104C300061F480EB97E00E94C50587EA97E00E9447
:104C4000C50508C010927A030CC085EA97E00E945F
:104C5000C50507C081E0817006C010927A0380E02C
:104C600002C080E0F8CFCF910895EE0FFF1F00241F
:104C7000001C0BBE0790F691E02D0994F894FFCF2D
:104C80000080FFFF0559010000FFDA0E470FDD0E1F
:104C9000120FDE0E0101530340362239D1069B0666
:104CA00079064006CC05E505FE051E06000010004D
:044CB00008000400F4
:106800008800EA44E944E244040005000600070069
:10681000080009000A000B000C000D000E000F001C
:1068200010001100120013001400150016001700CC
:10683000180019001A001B001C001D001E001F007C
:10684000200021002200230024002500260027002C
:10685000280029002A002B002C002D002E002F00DC
:10686000300031003200330034003500360037008C
:10687000380039003A003B003C003D003E003F003C
:1068800040004100420043004400450046004700EC
:10689000480049004A004B004C004D004E004F009C
:1068A000500051005200530054005500560057004C
:1068B000580059005A005B005C005D005E005F00FC
:1068C0006000610062006300640065A185006700EC
:1068D000680069006A006B006C006D006E006F005C
:1068E0007000710072007300890087008A008B00BD
:1068F000E000E100E200E300E400E500E600E7007C
:106900000100010001000100EA4401000100E2442D
:106910000100010001000100460001004A004B0097
:10692000010001004700480001000100E9440100A6
:106930000100010001000100010001003A003B00DC
:106940003C003D003E003F0040004100420043004B
:10695000010035004C0039000100440045005200A0
:1069600049000100010050004F0029004D004E0079
:1069700051000100010001000100010001000100BF
:1069800001000100010001000100010001000100FF
:1069900001000100010001000100010001004D00A3
:1069A0004A004E004B0001000100010001000100FF
:1069B00001000100010001000100010001000100CF
:1069C00001000100010001000100010001000100BF
:1069D00001000100010001000100010001000100AF
:1069E0000100010001000100490001000100010057
:1069F000010001000100010001000100010001008F
:00000001FF
